:100000000A128A11BE2E00308A000408840A820770
:10001000003420345334573431343D344F344E346B
:1000200020345334573432343D344F34463446341C
:10003000203400345334533452342D345334313457
:0C0040003034383454343034323400345E
:100D7C0083010A128A11932F01300A128A11182743
:100D8C000A128A110030F3000030F2000230F10038
:100D9C005830F0000A128A1163270A128A110800CF
:100DAC00FA0010307A020318DC2EDD2EE52E7A08BC
:100DBC00803E0A128A1118270A128A11F22E7A081A
:100DCC00EC3EF9007908FA007A08C03E0A128A1142
:100DDC0018270A128A11F22E0800F8008312031346
:100DEC0006167808880086160030F3000030F200F2
:100DFC000030F1000A30F0000A128A1163270A123F
:100E0C008A118312031386120030F3000030F200B3
:100E1C000030F1000A30F0000A128A1163270A121E
:100E2C008A110800F8008312031306127808880050
:100E3C0086160030F3000030F2000030F100323042
:100E4C00F0000A128A1163270A128A118312031303
:100E5C0086120030F3000030F2000030F100323026
:100E6C00F0000A128A1163270A128A110800FA008C
:100E7C00502F7A0884000A128A1103200A128A1150
:100E8C000A128A11F3260A128A110130F900790824
:100E9C00FA07502F7A08031D542F622F7A0884000A
:100EAC000A128A1103200A128A110038031D5F2FBF
:100EBC00602F3F2F622F622F080073087204710499
:100ECC007004031D6A2F6B2F6D2F922F922F013000
:100EDC00F4000030F5000030F6000030F700740824
:100EEC00F0027508031C750F7C2F7D2FF10276081C
:100EFC00031C760F822F832FF2027708031C770FC7
:100F0C00882F892FF3027308720471047004031D77
:100F1C00902F912F6D2F922F0800033083160313FF
:100F2C008600870188010730850006309F0001305C
:100F3C000A128A1118270A128A1102300A128A110F
:100F4C0018270A128A1106300A128A1118270A1257
:100F5C008A110C300A128A1118270A128A11383099
:100F6C000A128A1118270A128A110A128A11C22629
:100F7C000A128A1102300A128A11D6260A128A1112
:100F8C0012300A128A113D270A128A1114300A12E1
:100F9C008A11D6260A128A1101300A128A113D27AB
:100FAC000A128A1183120313061386130710DE2FFD
:100FBC000618E12FE22FEC2FE42FE42F061CE72F6D
:100FCC00E82FE42F061786130714DE2F8618EF2F51
:100FDC00F02FDE2FF22FF22F861CF52FF62FF22F8B
:100FEC00061386170710DE2FDE2FDE2FDE2F0A12D8
:040FFC008A1100282E
:02400E00323F3F
:00000001FF
